:020000040000FA
:02000000602876
:040002000034003492
:1000C0008316031367308F00831603178801890195
:1000D000831603130711FF309200831203130C30B1
:1000E00097001215831603130514831603170814BB
:1000F000831603139F139F121F12831203134130A1
:100100009F009B208316031307131813181218154A
:10011000831203139817831603131930990083165B
:100120000317871183160313981696288312031357
:100130009F14A62096280000000000000000000088
:100140000000000000000000000008009F18A62822
:060150001E0895000800E6
:02400E00F42F8D
:02401000FF3F70
:00000001FF
