:020000040000FA
:02000000602876
:040002000034003492
:020008000900ED
:1000C0008316031367308F00831603178801890195
:1000D000831603130711FF309200831203130C30B1
:1000E00097001215831603130514831603170814BB
:1000F000831603139F139F121F12831203134130A1
:100100009F009E20831603130717871718131812D2
:1001100018158312031398178316031319309900C7
:1001200083160317871183160313981697288312D3
:1001300003139F14A9209E20B120972800000000DF
:1001400000000000000000000000000000000000AF
:100150000800831203139F18A9281E08F0009500B9
:100160000800831203130C1EB128831203137008B6
:0401700099000800EA
:02400E00F42F8D
:02401000FF3F70
:00000001FF
