:020000040000FA
:02000000602876
:040002000034003492
:08000800F000030EF1000B11E2
:10001000F20A74087202031D1D28F201F30A730824
:10002000132088001D280739820701340234043464
:1000300008341034203440348034710E8300F00EC4
:04004000700E090035
:1000C0008316031367308F00831603178801890195
:1000D000831603138801811281110110811001110F
:1000E0008B178B16831203138101F2018801F30130
:1000F00083160313051483160317081483160313BA
:100100009F139F121F128312031341309F008E20F2
:100110008928831203139F14992089280000000066
:1001200000000000000000000000000000000000CF
:0C01300008009F1899281E08F400080021
:02400E00F42F8D
:02401000FF3F70
:00000001FF
