:020000040000FA
:02000000602876
:040002000034003492
:08000800F000030EF1000B11E2
:10001000F30A74087302031D2028F301F20A720820
:100020001620F50A83120313880020280739820757
:100030000134023404340834103420344034803421
:0A004000710E8300F00E700E09002F
:1000C0008316031367308F00831603178801890195
:1000D0008316031300309F000814831603130514BE
:1000E0008312031341309F00BB20831603130711B3
:1000F000FF309200831203130C3097001215831601
:1001000003138801F301831203138801810183160D
:100110000313811281110111811401108B178B16A9
:100120008316031387170717831603178711831680
:100130000313181318121815831603131930990096
:10014000831203139817831603139816A728831294
:1001500003139F14B520BB20AF20C620A72808306A
:100160007502031D0800F50108009F18B5281E0838
:100170009500F400080000000000000000000000EE
:1001800000000000000000000000080083120313BC
:100190000C1EC628831203137508303E9900080010
:02400E00F42F8D
:02401000FF3F70
:00000001FF
